{
  "_format": "hh-sol-artifact-1",
  "contractName": "MultiSend",
  "sourceName": "contracts/MultiSend.sol",
  "abi": [
    {
      "inputs": [],
      "stateMutability": "nonpayable",
      "type": "constructor"
    },
    {
      "anonymous": false,
      "inputs": [
        {
          "indexed": true,
          "internalType": "address",
          "name": "sender",
          "type": "address"
        },
        {
          "indexed": false,
          "internalType": "uint256",
          "name": "totalAmount",
          "type": "uint256"
        },
        {
          "indexed": false,
          "internalType": "uint256",
          "name": "recipientCount",
          "type": "uint256"
        },
        {
          "indexed": false,
          "internalType": "uint256",
          "name": "amountPerRecipient",
          "type": "uint256"
        }
      ],
      "name": "FundsDistributed",
      "type": "event"
    },
    {
      "anonymous": false,
      "inputs": [
        {
          "indexed": true,
          "internalType": "address",
          "name": "recipient",
          "type": "address"
        },
        {
          "indexed": false,
          "internalType": "uint256",
          "name": "amount",
          "type": "uint256"
        }
      ],
      "name": "TransferSucceeded",
      "type": "event"
    },
    {
      "stateMutability": "payable",
      "type": "fallback"
    },
    {
      "inputs": [],
      "name": "getContractBalance",
      "outputs": [
        {
          "internalType": "uint256",
          "name": "",
          "type": "uint256"
        }
      ],
      "stateMutability": "view",
      "type": "function"
    },
    {
      "inputs": [
        {
          "internalType": "address[]",
          "name": "recipients",
          "type": "address[]"
        }
      ],
      "name": "multiSend",
      "outputs": [],
      "stateMutability": "payable",
      "type": "function"
    },
    {
      "inputs": [],
      "name": "owner",
      "outputs": [
        {
          "internalType": "address",
          "name": "",
          "type": "address"
        }
      ],
      "stateMutability": "view",
      "type": "function"
    },
    {
      "inputs": [],
      "name": "withdrawDust",
      "outputs": [],
      "stateMutability": "nonpayable",
      "type": "function"
    },
    {
      "stateMutability": "payable",
      "type": "receive"
    }
  ],
  "bytecode": "0x608060405234801561001057600080fd5b50600080546001600160a01b0319163317905561071c806100326000396000f3fe6080604052600436106100435760003560e01c80636f9fb98a1461010e5780638da5cb5b1461012e57806399d136f514610166578063cfb550f11461017b576100bb565b366100bb5760405162461bcd60e51b815260206004820152603a60248201527f4d756c746953656e643a2073656e6420457468657220766961206d756c74695360448201527f656e6428292c206e6f7420646972656374207472616e7366657200000000000060648201526084015b60405180910390fd5b60405162461bcd60e51b815260206004820152602260248201527f4d756c746953656e643a2066756e6374696f6e20646f6573206e6f74206578696044820152611cdd60f21b60648201526084016100b2565b34801561011a57600080fd5b506040514781526020015b60405180910390f35b34801561013a57600080fd5b5060005461014e906001600160a01b031681565b6040516001600160a01b039091168152602001610125565b610179610174366004610609565b610190565b005b34801561018757600080fd5b506101796104a5565b806101e95760405162461bcd60e51b8152602060048201526024808201527f4d756c746953656e643a20726563697069656e747320617272617920697320656044820152636d70747960e01b60648201526084016100b2565b600034116102395760405162461bcd60e51b815260206004820152601860248201527f4d756c746953656e643a206e6f2045746865722073656e74000000000000000060448201526064016100b2565b806000610246823461067e565b9050600081116102be5760405162461bcd60e51b815260206004820152603b60248201527f4d756c746953656e643a20457468657220616d6f756e7420746f6f20736d616c60448201527f6c20746f2073706c697420616d6f6e6720726563697069656e7473000000000060648201526084016100b2565b60005b8281101561045b5760008585838181106102dd576102dd6106a0565b90506020020160208101906102f291906106b6565b90506001600160a01b03811661035b5760405162461bcd60e51b815260206004820152602860248201527f4d756c746953656e643a20726563697069656e7420697320746865207a65726f604482015267206164647265737360c01b60648201526084016100b2565b6000816001600160a01b03168460405160006040518083038185875af1925050503d80600081146103a8576040519150601f19603f3d011682016040523d82523d6000602084013e6103ad565b606091505b505090508061040e5760405162461bcd60e51b815260206004820152602760248201527f4d756c746953656e643a207472616e7366657220746f20726563697069656e746044820152660819985a5b195960ca1b60648201526084016100b2565b816001600160a01b03167fc12c845aa612685ce7eba62f9a39aa76cd74c79886ba529d72a23d31690d8c738560405161044991815260200190565b60405180910390a250506001016102c1565b50604080513481526020810184905290810182905233907f8fca333bc5f271f7463bd176223a82b9f285cfb1c977d1723e2e66a92ae899939060600160405180910390a250505050565b6000546001600160a01b0316331461050a5760405162461bcd60e51b815260206004820152602260248201527f4d756c746953656e643a2063616c6c6572206973206e6f7420746865206f776e60448201526132b960f11b60648201526084016100b2565b47806105585760405162461bcd60e51b815260206004820152601e60248201527f4d756c746953656e643a206e6f206475737420746f207769746864726177000060448201526064016100b2565b600080546040516001600160a01b039091169083908381818185875af1925050503d80600081146105a5576040519150601f19603f3d011682016040523d82523d6000602084013e6105aa565b606091505b50509050806106055760405162461bcd60e51b815260206004820152602160248201527f4d756c746953656e643a2064757374207769746864726177616c206661696c656044820152601960fa1b60648201526084016100b2565b5050565b6000806020838503121561061c57600080fd5b823567ffffffffffffffff8082111561063457600080fd5b818501915085601f83011261064857600080fd5b81358181111561065757600080fd5b8660208260051b850101111561066c57600080fd5b60209290920196919550909350505050565b60008261069b57634e487b7160e01b600052601260045260246000fd5b500490565b634e487b7160e01b600052603260045260246000fd5b6000602082840312156106c857600080fd5b81356001600160a01b03811681146106df57600080fd5b939250505056fea264697066735822122054237a2b37e4838532dd6476bbfd1e1dc597e3655852dc877c8de3623dacd5da64736f6c63430008180033",
  "linkReferences": {},
  "deployedLinkReferences": {}
}